:020000041000EA
:1000000000B5324B212058609868022188439860DF
:10001000D860186158612E4B002199600221596106
:100020000121F02299502B49196001219960352056
:1000300000F044F80222904214D00621196600F024
:1000400034F8196E01211966002018661A6600F04E
:100050002CF8196E196E196E052000F02FF8012189
:100060000842F9D1002199601B49196000215960AB
:100070001A491B48016001219960EB211966A021F2
:10008000196600F012F800219960164914480160C1
:100090000121996001BC002800D000471248134993
:1000A000086003C880F30888084703B5996A0420EC
:1000B0000142FBD001200142F8D103BD02B5186610
:1000C0001866FFF7F2FF186E186E02BD00000240BE
:1000D000000000180000070000035F00212200005C
:1000E000F4000018222000A00001001008ED00E03C
:1000F00000000000000000000000000074B24E7A12
:1001000000200420F7010010C3010010C5010010F9
:10011000C1010010C1010010C1010010C101001097
:10012000C1010010C1010010C1010010C701001081
:10013000C1010010C1010010C9010010CB01001065
:10014000CD010010CD010010CD010010CD01001037
:10015000CD010010CD010010CD010010CD01001027
:10016000CD010010CD010010CD010010CD01001017
:10017000CD010010CD010010CD010010CD01001007
:10018000CD010010CD010010CD010010CD010010F7
:10019000CD010010CD010010CD010010CD010010E7
:1001A000CD010010CD010010CD010010CD010010D7
:1001B000CD010010CD010010CD010010CD010010C7
:1001C00000BE00BE00BE00BE00BE00BE00F04BF888
:1001D000103800BEF2EB887194A30010B4A3001095
:1001E0003402001090A31AE700202149086006C8D5
:1001F00081F3088810471F48006800282FD10DA4FC
:100200000ECC002902D000F012F8F9E71A491B4A77
:10021000002000E001C19142FCD1194988471949E9
:1002200088471949884700BEFDE701C901C29A42C3
:10023000FBD37047B4A30010C00000209805002035
:100240008CA8001000000420000004208CA80010DE
:1002500000100420001004200000000070470B482C
:1002600003F038FD0047EFF30580C0B2704700008F
:1002700008ED00E0000000D09805002018130020D1
:10028000A12500100D0900105D2500105756000033
:1002900006005250ABB36053409B00100600525012
:1002A000861C0302509B0010060052505422A29D4F
:1002B000589B001005005250DE65F4688CA80010B1
:1002C000F8B5C04606480749091A8B10C90FC91866
:1002D00010B5491003D0044B002B00D0984710BD37
:1002E000980500209805002000000000054B10B57F
:1002F000002B03D00449054800E000BFFFF7E2FFF0
:1003000010BDC04600000000A8100020C88B0010DF
:1003100000B585B003AA6B23138004480023009323
:100320000233682108F0C0FB05B000BD7005002055
:1003300010B5040001F0DAFD002903DB20606160E4
:10034000200010BD024B034A03483F2102F00AF986
:10035000C88B0010C08C0010E48B0010D0231B064B
:10036000802292019A617047D0231B06802292015D
:100370005A617047D0231B068022D2039A617047CE
:10038000D0231B068022D2035A61704710B584B077
:1003900004006B46D971CAB21F2313406A46D37357
:1003A000FFF7DCFF01226B46D91D200008F0FCFBA3
:1003B00001230F226A44FF21200008F0C5FBFFF74C
:1003C000D3FF6B46D87B04B010BD70B582B005007A
:1003D0006B46DC1DD9719E1D9A71CAB21F23134052
:1003E000202213432370FFF7B9FF012221002800C8
:1003F00008F0DAFB01223100280008F0D5FBFFF7F6
:10040000B3FF02B070BDF0B5C64600B582B00600BD
:10041000170098466B46DD1DD971CBB21F241C40D6
:1004200020231C432C70FFF799FF01222900300084
:1004300008F0BAFB42463900300008F0B5FBFFF780
:1004400093FF02B080BCB846F0BD000070B5040058
:10045000FFF790FFFFF788FF0B2001F0ADFC0A22A9
:1004600000212000FFF7B1FF1048002101F078FCC7
:10047000002201212000FFF7A8FF5A2205212000B9
:10048000FFF7A3FF0A4D05232A000A212000FFF7EA
:10049000BAFF05232A0010212000FFF7B4FF202215
:1004A00011212000FFF791FF70BDC046DC05000060
:1004B0002C8C001010B504000021FFF767FF01230A
:1004C00002009A43D2B200212000FFF77EFF822073
:1004D000002101F045FC10BD70B582B004000D0094
:1004E0006B46DE1DA0233370FFF738FF0122310079
:1004F000200008F059FB20222900200008F054FBBE
:10050000FFF732FFFFF73CFF0A20002101F028FC33
:10051000FFF730FF02B070BD30B587B005000F2285
:100520006A443B2313700F4C3A3B00936821200030
:1005300008F0BAFA00230093063304AA68212000C9
:1005400008F0BEFA002308E05A0004A98C5C2402DB
:10055000501C095C2143A9520133022BF4DD07B082
:1005600030BDC0467005002030B587B005000F22B1
:100570006A44432313700F4C423B009368212000D0
:1005800008F092FA00230093063304AA68212000A1
:1005900008F096FA002308E05A0004A98C5C2402B3
:1005A000501C095C2143A9520133022BF4DD07B032
:1005B00030BDC0467005002070B582B004000E004A
:1005C000002512E06846FFF7CFFF6B461B882288A4
:1005D0009B1823806B465B8862889B1863806B4600
:1005E0009B88A2889B18A3800135B542EADB0023D3
:1005F000E05E310003F09AFB20800223E05E3100D0
:1006000003F094FB60800423E05E310003F08EFB76
:10061000A08002B070BD0000F8B504000023CD5EDC
:10062000280068430223CF5E3B007B43C0180422AE
:100630008B5E5B43C01803F091FE03F0EFFE03F006
:10064000E1FE061C380004F067FF311C04F045FF92
:1006500004F0BEFF04F016F8104A114B03F00DFE33
:1006600003F0D0FE071C280004F056FF311C04F0F4
:1006700034FF04F0ADFF04F005F8084A094B03F01D
:10068000FCFD03F0BFFE051C381C04F067FF208052
:10069000281C04F063FF6080F8BDC046D9CEF75334
:1006A000E3A54C40E3A54CC0F0B5D6464F464646C0
:1006B000C0B584B00600894617000C9A0D9B5848B7
:1006C000002103F09DFBC72800DCA4E003F046FEF8
:1006D0000022544B03F0D1FD02000B0000205249D0
:1006E00003F0ADFD03F052FE82460023FA5E81B2B4
:1006F0004A4333889B181BB2984633800222BB5E64
:100700004B437088C01800B2708003F027FE0400CD
:100710000D000423F85E5346584304F0FDFE4349A0
:1007200004F0F1FE04F054FF03F08EFE02000B0013
:100730002000290003F0A1FD00900191404603F044
:100740000DFE009A019B03F071FD03F01FFE03B242
:10075000984633800423F85E5346584304F0DCFE89
:10076000324904F0D0FE04F033FF03F06DFE009038
:100770000191404603F0F2FD009A019B03F07DFDDC
:1007800002000B002000290003F047FD03F0FEFDEE
:100790007080494603A8FFF73FFF0023F05E03F097
:1007A000DDFD234A234B03F068FD04000D0002AB7E
:1007B0000420185E03F0D2FD1F4A204B03F05DFDBC
:1007C00002000B002000290003F030FD03F0DEFDE5
:1007D00030800223F05E03F0C1FD154A154B03F093
:1007E0004CFD04000D0002AB0620185E03F0B6FDC0
:1007F000114A124B03F041FD02000B0020002900BA
:1008000003F014FD03F0C2FD708004B0E0BCBA46F2
:10081000B146A846F0BD49463000FFF7FDFEF4E7BB
:1008200040420F00006050400000F03FCDCCCC3D76
:10083000789CA223B9FCEF3F2D431CEBE2363A3FF4
:1008400010B502240B5F002B06DD04240B5F002B88
:1008500002DD0024035F138002240B5F002B03DD05
:1008600004240B5F002B24DB02240B5F002B25DB11
:1008700002240B5F002B2ADB00240B5F002B2FDBF5
:1008800000240B5F002B33DB00240B5F002B03DD08
:1008900004240B5F002B34DB00240B5F002B07DDEF
:1008A0000423CB5E002B03DD43886933FF33538081
:1008B00010BD0488B4231B1B1380D5E704240B5FF1
:1008C000002BD5DA0488B4231B1B1380D0E7042443
:1008D0000B5F002BD0DD03886933FF331380CBE738
:1008E00004240B5F002BCBDD0224035F5380C7E79A
:1008F00004240B5F002BC7DA4488B4231B1B5380EE
:10090000C2E74488B4231B1B5380C5E7F0B5D64625
:100910004F464646C0B5B4B0642001F04DFA05F02C
:100920007BF80D2000F016F9D024240680239B01CB
:1009300063626361162000F00DF98023DB036362BC
:10094000A361624C6249200007F0C0FE01210A2029
:1009500000F0CEF801210B2000F0CAF801210C2094
:1009600000F0C6F82000FFF771FD2000FFF7A2FDA0
:100970005848594908F06CF80321042000F0B8F8F1
:100980000321052000F0B4F800220121042000F02A
:10099000C7F800220121052000F0C2F8FFF7B8FCDB
:1009A00032A8FFF7B9FD32A92DA8FFF735FE04A83C
:1009B000FFF7BEFC049E059F64212EA8FFF7FCFDF7
:1009C0001AA8464B0200190031C931C231C931C2DF
:1009D00031C931C20968116010A81A00283201001B
:1009E00031CA31C131CA31C131CA31C112680A605C
:1009F00006A950330A0031CB31C213CB13C213CB3B
:100A000013C21B68136000250FE0354B354A36488A
:100A10003F2101F0A7FD324B324A33483F2101F01C
:100A2000A1FD0025642001F0C7F932A8FFF774FD8D
:100A300030AC2000FFF798FD2EAB19882288521A9F
:100A4000228059886288521A62809A88A3889B1AE9
:100A5000A38001F04BFA02000B1ED6DB921BBB41B8
:100A60000092019330AA32A92DA8FFF71DFE01F0D4
:100A70003DFA0029CFDB06000F0032AC2CAA210082
:100A80002DA8FFF7DDFE0023E25E91460223E25E21
:100A900092460423E05E30A90023CC5E02228B5EE6
:100AA0009C4604228B5E1149039363460293019492
:100AB000009053464A4624A803F0DEF824A90348D0
:100AC000FFF70AFD082DACDC0135ABE70000044060
:100AD0008096980070050020801A0600488C00104F
:100AE000C88B0010C08C0010E48B0010348C0010F8
:100AF00010B58300084A944663441A684024624053
:100B0000803414408022520113431C60C000034B08
:100B10009C466044416010BD04C00140004001405B
:100B200080000B4B9C46604400290DD00823002A0E
:100B30000CD004221343026853400C221A40802335
:100B40005B0103431A6070470023F0E70022F1E7DE
:100B500004C0014010B501238340D02212069362E5
:100B600093610521FFF7C4FF10BD0000EFF3108073
:100B700072B6034B1B68002BFBD0BFF35F8F70472F
:100B80002C0100D0BFF35F8F024B00221A6080F36C
:100B9000108870472C0100D0F8B506000C00150035
:100BA000FFF7E4FFE308F718F15C07222240012376
:100BB00093400B4205D1DBB20B433B70FFF7E2FFE2
:100BC000F8BD2100280001F067FDF0B583B00600F4
:100BD000019114001F00FFF7C9FF00E00134BC427F
:100BE0000CD8E308F518F35C0721214001228A4064
:100BF0001A42F3D1D2B21A432A7001E001246442AE
:100C0000FFF7C0FF002C02DB200003B0F0BD019B0A
:100C1000002BF9D0089801F03FFD0000034B1B6842
:100C200002201840431E9841C0B2704700C00640E1
:100C3000002307E0054A9A189200BFF35F8F002156
:100C4000116001331F2BF5D97047C04640000034B6
:100C5000054A1078431CDBB21370172B02D913001E
:100C600010221A707047C0469804002010B582B058
:100C70000100054C054B00931F2318222000FFF7AD
:100C8000A4FF02B010BDC046040C0020D88C001098
:100C9000074B9B68103080001950BFF35F8FBFF384
:100CA0005F8F044B0021196082F310887047C046A3
:100CB00000ED00E0240100D010B5091A0B1F0A4A0C
:100CC00094466144094A914208D8DA0706D45B1079
:100CD0005B055B0D0648184380B210BD054B064A04
:100CE0000648992101F03EFCFC070000FE0F0000C1
:100CF00000E0FFFFF48C0010548F0010248D0010D2
:100D000010B5091A04394A08090B08D14905490DDB
:100D1000064B0B430380064B1343438010BD054B2A
:100D2000054A0648A12101F01DFCC04600F0FFFF66
:100D300000F8FFFF648D0010288F0010248D001034
:100D400001238340034A10681840431E9841C0B2F3
:100D50007047C04600E100E0002904D0034B186052
:100D6000034B18607047034B1860FBE780E200E01C
:100D700000E100E080E100E010B5012383401800AD
:100D8000FFF7EAFF10BD000001238340014A136012
:100D90007047C04600E200E0024B9B6810308000C4
:100DA000C058704700ED00E010B5FFF7F5FF0028D0
:100DB00005D0054BC01A2F2803D8012010BD0020F4
:100DC000FCE70020FAE7C0469C04002070B5040050
:100DD0000D00EFF3108672B60C4B1B68002BFBD096
:100DE000BFF35F8F2000FFF7D7FF094B984201D078
:100DF000A84205D1320029002000FFF749FF70BD4D
:100E0000044B054A05487C2101F0ACFB240100D0CD
:100E1000CD010010748D0010888F0010248D0010FB
:100E2000F0B5DE4657464E464546E0B589B08146A8
:100E300001911500EFF3108A72B6744B1B68002BFA
:100E4000FBD0BFF35F8F724B0027DF57002F40DBD3
:100E50007C00E419A4006F4824180622A2566C4BAB
:100E60001A706D4B9A684B4610339B00D3589846C6
:100E70001E00181A2F2838D9684B98452FD105AE77
:100E8000674B338067497B009B46D8198000614BD4
:100E9000984640440230FFF70FFF7080624BB380EA
:100EA000FF23B371F571019B07935F44BB0043447B
:100EB00007CE07C301231C43A0465246414648467D
:100EC000FFF7E6FE09B0F0BCBB46B246A946A04615
:100ED000F0BD564B564A5748CD2101F043FB564BC7
:100EE000534A5448D42101F03DFB01380C2102F053
:100EF00045FF002912D101239E43B346330000264B
:100F0000DA79AA4211D90621595600290CDB4A0088
:100F1000521892003F491E008B18F1E7474B444A94
:100F20004448E02101F01EFB1E00002E3BD005AB23
:100F3000434A1A80813A5A800623F3560293002BC3
:100F400018DABD20000205AB9B469880029A9A7180
:100F5000DD71019A0792301D2100FFF7ADFEB080D0
:100F6000B7712C4B7A00D21992009B185A4613CABB
:100F700013C3A2E77800C0198000264BC0180430C4
:100F8000311DB388DA0A1C2A07D15B055B150233D1
:100F90005B00C918FFF790FED5E72A4B2A4A25487F
:100FA000A72101F0DFFA05AE1D4B33801D497B0000
:100FB0000293DB199B00174A90461A0042440392A1
:100FC000901CFFF779FE7080039A101D5946FFF7B9
:100FD00073FEB0801D4B5A464146521A524153434C
:100FE0001B0DB371F571019A0792029B9C466744F1
:100FF000BB00434407CE07C3114B5A461380813BC5
:10100000538001231C43A04657E7C046240100D06B
:10101000121300209C04002000ED00E0CD01001020
:1010200000A1FFFFCC04002000BDFFFFAC8D00102D
:10103000708F0010248D0010D48D0010FC8D0010D6
:1010400001480000708E0010608F0010AAAA0000F6
:10105000F0B5CE46474680B583B006000D00EFF3ED
:10106000108872B6554B1B68002BFBD0BFF35F8F07
:10107000534B9A6834001034A300D758514B9F4209
:1010800007D0AF4200D197E001974F4BFB1A2F2BAF
:1010900009D9424639003000FFF7FAFD03B0C0BC61
:1010A000B946B046F0BD3000FFF74AFE8146002148
:1010B0003000FFF761FEBFF35F8FFFF7D4F8002821
:1010C00001D0844211D10123019C9C430021A368DB
:1010D000AB4212D00622A256002A0DDB53009B1809
:1010E0009B00394A2100D418F1E7384B384A2C21AB
:1010F0003848FF3101F036FA2100AB4255D10625C0
:101100006557002D37DB304B6A00521992009B184F
:101110009A68A260DA79E2719B795BB2A371002BC5
:1011200010DABD200002A080274B6A0052199200FD
:101130009B18294A11789971157049463000FFF7BC
:101140001BFEA6E7201D6B005B199B001E4A9B1827
:10115000191D9B88DA0A1C2A07D15B055B1502332F
:101160005B00C918FFF7A8FDDDE71C4B1C4A1948B6
:10117000A72101F0F7F9002812D100290ED0FF2392
:101180008B71184B8B8014490B78A3710E4A164B48
:10119000A41A644163431B0D0B70CEE7094FF2E7BD
:1011A0001249201DFFF7ACFDC7E7114B084A60212B
:1011B0000848FF3101F0D6F9024F6AE7240100D058
:1011C00000ED00E0CD0100109C040020888E00108E
:1011D000408F0010248D001012130020708E00101C
:1011E000608F001000BDFFFFAAAA0000D6040020F7
:1011F000AC8E001070B50400012606432D4BF31A87
:101200002F2B28D8FFF72FF800282BD0EFF3108CC6
:1012100072B6294B1B68002BFBD0BFF35F8F254AAA
:10122000264D2100891A49414D432D0D6DB2244BA5
:101230009B6880001B58B3421BD00021032932D881
:101240001C4B4A00521892009B189B795BB2AB4230
:101250001FD00131F2E71B4B1B4AC2211B4849003A
:1012600001F080F91A4B184A88211848FF3101F023
:1012700079F9134B9B68174A1A50174B1A78A271C9
:101280001D70BFF35F8F0C4B00221A608CF3108827
:1012900070BD084B4A00501880001818FF26867150
:1012A0000E4A8280E9E70E4B074ACC2107484900E5
:1012B00001F058F99C040020240100D0AAAA0000E3
:1012C00000ED00E0B48E00100C8F0010248D001093
:1012D000DC8E0010CD0100101213002000BDFFFFB6
:1012E000E88E00100022044B02E0044902C30132E0
:1012F000072AFAD97047C04600E400E08080808069
:1013000000B583B00100D0231B061B680648C01837
:10131000064B009305230022FFF757FC002801DB52
:101320001F23181A03B000BD0C130020F08E00100C
:10133000024B9C46614489000160704740000034C4
:1013400070B505000C00080000F0C4FD200000F09E
:10135000A9FE0849200000F0E9FDFFF779FC064BE3
:101360009C466044800068602C75044BA400E550E6
:1013700070BDC0467516001040000034C01000203B
:101380000A4B1A68EFF3108172B61368002BFCD079
:10139000BFF35F8F054B1B68BFF35F8F00221A609E
:1013A00081F3108840BF002000217047DC1200202C
:1013B00010B5002920D003681B7B99421CD8836894
:1013C000154CA446614409015B181C685968002A41
:1013D00018D003681B7B9A4214D883680E48844651
:1013E000624412019B181A685B6801208B4201D885
:1013F0000ED00020C0B210BD084B094A09483B215D
:1014000001F0B0F8054B064A06483B2101F0AAF866
:10141000A242EFD8EDE7C046FFFFFF0FF48F0010A8
:1014200054920010B88F001010B500291DD0037B16
:1014300099421AD804684B005B18033BE418002952
:1014400019D0002A1DD0914221D0002A25D0037B3B
:101450009A4222D8006853009B18033BC318997026
:10146000217800291FD1227010BD104B104A11485D
:10147000682101F077F8104B104A0E486F3101F0E7
:1014800071F80F4B0D4A0B48702101F06BF80D4BB2
:101490000A4A0848712101F065F8044B044A0548DE
:1014A000682101F05FF859702270DDE72890001084
:1014B000C092001044900010909000109C92001078
:1014C0009C900010A890001070B506000D0014004C
:1014D000002914D0002A14D0436880689847002857
:1014E00006D0220029003000FFF79EFF280007E009
:1014F0002A0021003000FFF797FF200000E01000D5
:1015000070BD0800FCE70000F0B583B00500009254
:1015100001930AAB1C780BAB1F78002C26D0036814
:101520005A7B944207D10123002B19D1002C3AD1C8
:10153000200003B0F0BD002C0CD01A7B944209D8D7
:101540001A6863001B19033BD3189B78002BEBD060
:101550000123E9E73C4B3D4A3D48682101F002F890
:101560003C4B3D4A3D48652100F0FCFF03689C7BF5
:10157000002CDBD011D01A7B94420ED81A6861007F
:1015800009190339521851789973002900D1D97378
:101590000023937053701370C8E72B4B2B4A2C48D1
:1015A000682100F0DFFF002C37D02B681B7B9C42AA
:1015B00033D8AB682A4AA21812019B18009A1A6005
:1015C000019A5A60089A9A60099ADA602E68002C8B
:1015D00029D02ED0337B9C422BD83368620012195D
:1015E000033A9B1800229A705A701A70717B22007D
:1015F0003000FFF769FF7073844299D1287D009A0B
:10160000019B00F0DBFC061E01D0002F17D00C9BC5
:10161000002B00D18CE71E708AE7124B124A0F484C
:101620003B2100F09FFF114B114A0948A52100F012
:1016300099FF054B054A0648682100F093FF28688A
:10164000210000F0DDFEE2E728900010C0920010BB
:1016500044900010C0900010CC920010B88F001081
:10166000FFFFFF0FF48F001054920010B48F001092
:10167000B0920010F0B5DE4657464E464546E0B5FE
:101680008BB0099000230893B24B8200D55833E009
:10169000B14BB24AB2483F2100F064FFB14BB24AAD
:1016A000B2483B2100F05EFFB14BB24AAF488C21FB
:1016B00000F058FFB04BAF4AAC48902100F052FF09
:1016C000A84BAE4AA948402100F04CFF43461A6897
:1016D0005B68099800F072FC00239B469A466B6891
:1016E000BFF35F8F00221A6089F310885346002BE6
:1016F00053D1002800D126E100F0F8FB02000B1EB8
:10170000C6DB00200021069007916868EFF310897E
:1017100072B601680029FCD0BFF35F8F2868447B54
:10172000002C35D0BAD0017B8C42B7D8AE68944932
:1017300061180901B046884441460E684F68B61AE0
:101740009F41002FC2DC01D1002EBFD1002100F04B
:101750004DFEA042A8D143461A685B6806920793E3
:1017600043469B689A464346DB689B465346002B9C
:10177000A0D0002CA4D02B681B7B9C42A0D8EA6888
:10178000631ED35C08931B02184328610020A6E760
:1017900000239B469A460020A1E7089B1B02234397
:1017A000984659461800D04706000F006A68EFF3C4
:1017B000108972B6136859424B41D9B2002BF9D146
:1017C000BFF35F8F002F26DB002F52DD2B69002B2C
:1017D00053D0434572D100F089FB02000B1E73DB2E
:1017E0000100180092197B41984202D804D191421D
:1017F00002D901225242D317002B6BDB0021049146
:1018000001310391029459460191514600912800FB
:10181000FFF77AFE49E02B69002BD5D043451CD158
:10182000069A079B10001900921BBB41994202D8EF
:1018300004D1904202D901225242D317002B12DB6D
:1018400000210491013103910294594601915146BE
:1018500000912800FFF758FE27E04A4B454A4348CD
:101860009F2100F07FFE3C4B3C4A3D483F2100F069
:1018700079FE002F01D1002EA8D12A68002C44D077
:10188000537B9C422CD1012100293ED1D37B002BDC
:1018900041D1D473002C50D02B681B7B9C424CD878
:1018A000EA68013C135D0133135500232B616A681C
:1018B000BFF35F8F136089F310881DE7314B2D4A0A
:1018C0002A48A22100F04EFE234B244A24483F21FF
:1018D00000F048FE204B214A21483F2100F042FE03
:1018E000002C0CD0137B9C4209D8106863001B1994
:1018F000033BC3189B78002BC6D00121C4E7224BC1
:10190000224A2348682100F02DFE224B224A20481B
:10191000F62100F027FE002B09D0117B8B4206D860
:1019200010685900CB18033BC3185C70B1E7164B25
:10193000164A1748682100F015FE0A4B0F4A0B485B
:10194000402100F00FFE0BB0F0BCBB46B246A946EA
:10195000A046F0BDC0100020C88B001020920010DF
:10196000E48B0010F48F001054920010B88F001018
:10197000E89000103892001000910010789200104A
:10198000FFFFFF0F0C91001028900010C092001074
:1019900044900010489100108C92001010B50A4B32
:1019A0005B68002B04D009480A21FFF7C1FC10BD79
:1019B000054C074A20682300102100F03BFC03215E
:1019C0002000FFF7BDFCEEE7E4040020DC1200205D
:1019D000B113001010B5064B5B68002B01D0044812
:1019E00010BD044B044A05485C2100F0BBFDC04615
:1019F000E40400206C91001060920010B88F001079
:101A0000F0B5DE4657464E464546E0B58BB08046BB
:101A100016001F00149B9A46159B994616AB1B781F
:101A20009B461F2302AA9446634400221A7036E0A4
:101A3000002809D042461268127B904204D84246E0
:101A4000D168421E8A5C4CE0454B464A46484021DC
:101A500000F088FD0798002B79D05B46002B76D0EC
:101A60004946D04704000D0003000B4300D175E048
:101A700000294ADB00F03AFA02000B1E59DB010094
:101A8000180012196B41984202D804D1914202D930
:101A900001225242D317002B51DB16001F00434690
:101AA0005A68EFF3108472B6136859424B41D9B2A9
:101AB0000791002BF8D1BFF35F8F1F3302AA944622
:101AC000634404930023039302934B4601935346CC
:101AD000009332003B004046FFF716FD031EA7D1DE
:101AE000020041464968BFF35F8F00250D6084F313
:101AF0001088002B29D01F2302A98C4663441B7831
:101B0000002BA7D112021043A5E730003900361B85
:101B1000AF41B94202D804D1B04202D9012676427F
:101B2000F717002FBBDA114B114A12483F2100F082
:101B300019FD0E4B0E4A0F483F2100F013FD0B4BD1
:101B40000B4A0C483F2100F00DFD012040420BB034
:101B5000F0BCBB46B246A946A046F0BD0798F6E7E2
:101B6000F48F001078920010B88F0010C88B00100E
:101B700020920010E48B0010F8B504004268EFF3E7
:101B8000108572B6136858424341D8B2002BF9D180
:101B9000BFF35F8FCBB22268567BB3421BD10120CB
:101BA000002847D0206988422AD0090AC9B2002BF0
:101BB0002DD02068007B834229D8E668581E305C0F
:101BC00088422AD000206368BFF35F8F00221A602A
:101BD00085F31088F8BD002B0CD0167BB34209D8D2
:101BE00017685E00F618033EBE19B678002ED7D0EF
:101BF0000120D5E7124B134A1348682100F0B2FCCC
:101C0000124B134A85211348490000F0ABFC124BDC
:101C1000124A1048402100F0A5FC1900100000F005
:101C2000EFFB0028CFD10E4B094A12210948FF31A2
:101C300000F098FC23698B42C5D100232361C2E7E1
:101C400028900010C0920010449000109091001055
:101C500008920010B88F0010F48F001078920010D6
:101C6000B4910010F0B587B006000F00FEF7FBFA44
:101C700000281FD106246442E517A4197D41BD4206
:101C800002D803D1B44201D900240025002D14DB71
:101C90000494059500F02AF902000B1E13DBA41A28
:101CA0009D41002D17DC14D03000390000F02AF9D6
:101CB00007B0F0BD234800F0EFFC234B234A244833
:101CC0003F2100F04FFC204B204A21483F2100F0EB
:101CD00049FC002CE8D0FFF77DFE0023029301931E
:101CE0001C4B0093049A059BFFF78AFE002818DA24
:101CF000DAE7002300E00023002BD5D1164B1A6849
:101D0000EFF3108172B61368002BFCD0BFF35F8F26
:101D1000114B1B68BFF35F8F00221A6081F310889C
:101D200020BF0499059A0D4B5B6A9A42E3D80B4891
:101D3000806A884203D29A42DBD00123DCE7012388
:101D4000DAE7C046B8910010C88B0010209200104E
:101D5000E48B001081130010DC12002000400540CD
:101D6000F8B504000D0000F0C1F802000B1E10DBF6
:101D700020002900801859418B4202D804D18242A8
:101D800002D901204042C117002908DBFFF76AFF92
:101D9000F8BD064B064A07483F2100F0E3FB034B22
:101DA000034A04483F2100F0DDFBC046C88B001009
:101DB00020920010E48B001010B5FA22920000234C
:101DC000002103F063FBFFF7CBFF10BD70B584B0BB
:101DD00006000C00FFF7FEFD002302930193194B50
:101DE000009332002300FFF70BFE051E11DD20BF1C
:101DF000FFF7F0FD2900FFF7BFFE134B5B6A9C4223
:101E00001BD8114A926AB2421AD29C4213D00120C6
:101E100014E00D4B5B6A9C4209D80B4A926AB242AD
:101E200007D29C4201D0012008E0002006E00020FB
:101E300004E0012002E0002000E0002004B070BDBA
:101E40000120FBE7811300100040054070B5EFF35F
:101E500005833F2018401038EFF3108C72B6184BF2
:101E60001B68002BFBD0BFF35F8F0123190081405B
:101E7000144A5163144A12781400C440234213D008
:101E8000104B5C6A114B8500EB589C4205D3104BFC
:101E9000EB580D4C8A43227007E00A4A031D9B0051
:101EA00099589950002300E00023BFF35F8F044A44
:101EB000002111608CF31088002B00D0984770BD72
:101EC000280100D00040054016130020E812002031
:101ED000F40A002010B50100024A034B1800FEF777
:101EE0005BFE10BDE492001011130020044B5B6AEE
:101EF000034A906A1900536A9942F9D17047C04663
:101F000000400540084B5B6A01E0074B5B6A8B426F
:101F1000FBD301E0044B5B6A8B4203D1024B9B6A0B
:101F20008342F7D37047C0460040054070B50400B7
:101F30000E00EFF3108572B61B4B1B68002BFBD015
:101F4000BFF35F8F002E1CD02000FEF725FF174B3C
:101F500083420BD019002000FEF738FF012120003A
:101F6000FEF70AFF0123A340114A1360114BA4009E
:101F7000E650BFF35F8F0C4B00221A6085F3108888
:101F800070BD0C4BA2000021D1500122A2400A4991
:101F90000B7893430B7005492000FFF759F8002197
:101FA0002000FEF7E9FEE4E7280100D04D1E0010F6
:101FB00038600540F40A002016130020F0B5DE4614
:101FC00000B584B00400150001921E000293FFF7D3
:101FD0008DFF03958E4202D84ED185424CD9EFF346
:101FE000108B72B6274B1B68002BFBD0BFF35F8FA3
:101FF000254A17780125A540EBB23B431370234BCC
:102000005D63221D92000199D150214AA1000298DE
:1020100088501B6A2B4212D11C4B1B6C2B4208D0E0
:102020000020BFF35F8F174B00221A608BF31088DC
:1020300023E0184B184A1948C12100F093FAFFF722
:1020400055FF8E4214D802D1039B834210D80E4B09
:102050001B78BB420ED00D4B1D625D631F222240D8
:10206000012393400E4A1360074B1F700120D8E7ED
:102070000020D6E70120D4E7012004B080BCBB4695
:10208000F0BDC046280100D01613002000400540D6
:10209000E812002008930010709300102C93001099
:1020A00080E200E0EFF3108C72B60B4B1B68002B44
:1020B000FBD0BFF35F8F01238340084A13620849B6
:1020C0000A789A430A70BFF35F8F034B00221A60AD
:1020D0008CF310887047C046280100D000400540AE
:1020E0001613002010B500291DD0037B99421AD881
:1020F00004684B005B18033BE418002919D0002A40
:102100001DD0914221D0002A25D0037B9A4222D8AB
:10211000006853009B18033BC3189970217800296D
:102120001FD1227010BD104B104A1148682100F0D9
:1021300019FA104B104A0E486F3100F013FA0F4B8A
:102140000D4A0B48702100F00DFA0D4B0A4A084861
:10215000712100F007FA044B044A0548682100F099
:1021600001FA59702270DDE7289000107C9400106D
:102170004490001090900010689400109C90001003
:10218000A890001070B506000D001400002914D0AE
:10219000002A14D0436880689847002806D022009F
:1021A00029003000FFF79EFF280007E02A002100E9
:1021B0003000FFF797FF200000E0100070BD08001E
:1021C000FCE7000010B50023437301338373037BE6
:1021D000C3730123027B9A4213D9002B0BD0027BDD
:1021E000934208D801685A00D218033A8A1801337A
:1021F000DBB25370EEE70C4B0C4A0D48682100F03F
:10220000B1F9002A09D0924207D8016853009B18FF
:10221000033BCB1800225A7010BD034B034A0448FD
:10222000682100F09FF9C046289000107C940010AF
:102230004490001010B5017342608360FFF7C2FF45
:1022400010BD000070B50400081E00D170BD00294B
:1022500031D0237B99422ED822684B005B18033B78
:10226000D3185A78002AF1D02BD0237B9A4228D851
:10227000216853009B18033BCB185D7800215970EF
:10228000002824D0237B984221D8216843001B18C2
:10229000033BCB180021597001002000FFF772FFAB
:1022A000060029002000FFF7CDFF020031002000CA
:1022B000FFF768FFCAE7094B094A0A48682100F09E
:1022C00051F9064B064A0748682100F04BF9034BC9
:1022D000034A0448682100F045F9C04628900010E0
:1022E0007C9400104490001070B505000C0016009E
:1022F000002927D02CD0037B994229D803684900B4
:10230000091903395B185A78002A27D19A78002ACC
:102310002AD11978FFF796FF0300002E03D0EA7B3D
:10232000002A27D1EC73002B36D1002C47D02B7B11
:102330009C4244D82A6863001B19033BD31800222F
:102340005A7070BD214B224A2248382100F00AF908
:10235000214B224A2248682100F004F9214B1C4AF3
:102360001C483A2100F0FEF81F4B194A19483B213E
:1023700000F0F8F8002A09D0297B8A4206D82E6896
:1023800051008A18033AB2185470CBE7124B134A23
:102390001348682100F0E6F8002B0AD02A7B93420C
:1023A00007D82A6843001B18033BD31800229A70F1
:1023B000BBE7094B094A0A48682100F0D3F8064BED
:1023C000064A0748682100F0CDF8C0468C930010FB
:1023D0005494001094930010289000107C940010E6
:1023E00044900010D0930010F893001070B50400D2
:1023F0000A00457B2900FFF777FF6073280070BD56
:1024000070B50400002966D0437B8B420ED00029B2
:1024100011D0037B99420ED805684B005B18033B33
:10242000ED18AB78002B0CD1002055E00121FFF70F
:10243000DDFF012050E0294B294A2A48682100F09D
:1024400091F8002B1FD0027B93421CD800685A00E1
:10245000D318033BC218C35C8B421AD0002B1BD08D
:10246000227B934218D820685A00D318033BC01827
:1024700043788B4216D0002BF0D11B4B1B4A1C48D3
:10248000672100F06FF8154B154A1648682100F0D7
:1024900069F86B78137007E0104B114A11486821F6
:1024A00000F060F86B7843700023AB706B70012212
:1024B0002000FFF719FF0200617B814205D0200058
:1024C000FFF760FE6073012006E00A4B074A0848E8
:1024D0006D2100F047F8002070BDC0462890001024
:1024E0007C94001044900010E88E00103C94001082
:1024F000949300101C94001010B50400FEF7A8FB84
:1025000001002000FEF714FFFF232371BFF35F8F4C
:1025100010BD10B50400FEF79BFB01002000FEF784
:1025200007FFFF23237100236371BFF35F8F10BD8B
:10253000034B9C46614489000160BFF35F8F704785
:102540004000003410B504000120FEF78FFB0100AD
:102550002000FFF7EDFF10BD00BEFDE710B5FFF74F
:10256000FBFF000030B583B00D001900002A0DD02C
:10257000084B002A0CD0084C019200932B0002005B
:10258000200003F03DFA0120FFF7E6FF034BF0E7E0
:10259000024AF0E754950010649500106095001011
:1025A00070B52B4B2B4A1A602B4B2C4A1A602C4BC4
:1025B0009A682A4B9343FAD12A4C01E008CC9847F9
:1025C000294B9C42FAD300F001F9234B274A1A60A9
:1025D000234B9B68DB43DB01FAD1254B40229A67F2
:1025E0005A671A67DA66234C09E0234B234A2448CA
:1025F0008321FFF7B7FF2000FFF77EFF0834214B50
:102600009C4209D22368002BF5D0012BEDD120008C
:10261000FFF77FFF0834F2E71B4DA9681B4CC0226F
:10262000200003F0A9F8AC60FDF71DFE002800D0E3
:1026300000BEFEF7FDFAFEF755FEFFF7AFF9144CAA
:1026400001E008CC9847134B9C42FAD370BDC046BA
:1026500000E00040BFCDFBFE00F00040FE7F3C00EC
:1026600000C000408005002090050020FFFFFF0112
:1026700000F0014078050020949500100C960010A1
:10268000B49500108005002000ED00E0000000205F
:1026900090050020980500200FB400B583B00848CD
:1026A00003F07CF9049B002B07D005A901911800C9
:1026B00003F084F9034803F071F90120FFF74CFFA0
:1026C000F895001008960010F8B5DE4657464E46BD
:1026D0004546E0B506000F0015000A9A93424ED316
:1026E0001A0E92461B0298460A9A0023404651460B
:1026F00001F086FB81467400A419A4002E4B9C4671
:1027000064446368834200D26060331FDBB29B463F
:10271000012B3AD9C0239B012343802212011A6066
:10272000264BB200D158002905D0586901F026FB8C
:1027300001300138FDD16D0123685D40E0222A405F
:1027400080235B0123431A605A46012A28D980233B
:102750009B012343802212011A604B4663604A4664
:1027600000234046514601F04BFB144BB6009851F4
:102770000120F0BCBB46B246A946A046F8BD104BAE
:10278000104A11482D21FFF7EDFE012FC2D1C023C1
:102790009B01234303221A60A368DB07FCD5CAE729
:1027A0002168794003220A401A60A3680125BD40D0
:1027B0001D42FAD0CBE7C04600800040080C002044
:1027C0001C960010789600103096001030B583B03B
:1027D0000C2000F021F9FEF721FA00280DD000238B
:1027E00004E02E4A99002E4888500133092BF8D96D
:1027F0002A4B2C4A5A6203B030BD2B4B00229A67F9
:1028000000F07CF9294B01221A60274B5B6C012BED
:10281000FBD1274B03221A60234B9B6B012BFBD16F
:10282000013300930433234A0121234800F054F874
:1028300005230093214A0121214800F04DF8214B46
:102840000093002202210420FFF73EFF1E4D009559
:102850002B00002201210520FFF736FF104C0094C9
:102860002300002200210720FFF72EFF0094230001
:10287000002200210820FFF727FF0A4B00932300C6
:10288000002200210920FFF71FFF00952B000022E6
:1028900000210620FFF718FFADE7C046080C002016
:1028A000006CDC021BB70000008000403CB0004020
:1028B00030B00040002F685900800240008C8647ED
:1028C00000C00240001BB70040597307014B800055
:1028D000C0587047080C0020F0B5C64600B504008B
:1028E0000F0090461D000C2001F048FA06003D4AFA
:1028F00042443D4B9A4243D843011B1A9901C91ADD
:10290000C90009188901404601F038FA0200103A5E
:1029100098235B009A4239D86B1E062B3CD8069B45
:10292000013B062B38D8069B9D423BD343461B09EF
:10293000B3423DD32D04069B1E0335432368002B71
:102940003CDB2A4B9C424AD080235B01284A13601F
:10295000284A1360284A926819009143FAD12760E7
:10296000A060221DC0239B01134321221A6022680C
:10297000002AFCDAE56008221A6080BCB846F0BD87
:102980001E4B1F4A1F481121FFF7ECFD1E4B1C4A2E
:102990001C481921FFF7E6FD1C4B194A19481C2158
:1029A000FFF7E0FD1A4B164A16482221FFF7DAFD21
:1029B000184B134A13482521FFF7D4FD22683F2303
:1029C0001340BB42BDD1A3681B051B0D8342B8D188
:1029D000E368EE22D2021340AB42B2D1CDE78023AE
:1029E0009B01B3E780E84BD380F8A93200C00240D6
:1029F00000E0004000F0004000C000408896001059
:102A0000C4970010E8960010289700104497001013
:102A100090970010A897001080239B000343014A61
:102A2000D362704700800540024B1A68024B5A601F
:102A30007047C046A01000200080054010B502007D
:102A4000164B8020C0051860154B164818600029E9
:102A50000AD0154BE021C9041960002A09D1124B94
:102A6000802212061A6010BD0C4BE021C9041960C7
:102A7000F3E753019B1A9800801800010B4B186074
:102A800080235B04984202D3084B094A1A60FFF77F
:102A9000CBFF054B8022D2051A60E4E700B0054069
:102AA00008200140FCFF010000A00540A01000200C
:102AB000FFFFFF0010B5030010000C4A8024E4055E
:102AC0001460002B0DD001221343094A094CD46134
:102AD000094C5C401462516293620021FFF7AEFF23
:102AE00010BD034B0022DA61F7E7C04600B0054095
:102AF00000800540D3C007B02D3FF84F064BAA22F7
:102B000012011A602F22DA60044B054A1A60024B48
:102B10005B68002BFBDA7047004002400060024017
:102B200000B0FA009A4200D288547047704710B53E
:102B3000002802D00B684968984710BD01000020AA
:102B400007E083001B185B00501C08601078C01859
:102B500030380A681378303BDBB2092BF1D9704763
:102B6000F0B5DE4657464E464546E0B583B093463F
:102B70001F000C9B9A460D9C0E9B99460F9B9B0732
:102B800003D0B8460F00060022E00192A346884613
:102B90004E46B9460700B44207D2551C4B46414643
:102BA0002020B84701342A00F5E73D004F465C4637
:102BB000019B9B46B1464646B84637002E0007E0CB
:102BC000013C551C5346185D43463900B0472A0066
:102BD000002CF5D135003E0047460F9B9B0707D4DC
:102BE000100003B0F0BCBB46B246A946A046F0BDFB
:102BF000B0464E46B9462F005D46531BB342EFD256
:102C0000541C4B4641462020B8472200F5E7F0B55A
:102C1000CE46474680B585B0944698460C9D0D9C9F
:102C20000EAB1B789946109A119B129EB7071CD4C5
:102C3000002B0CD0F7070AD54F46002F02D10C37D6
:102C4000374204D0013B02E030272F550134944233
:102C500001D21F2CF8D9F70707D59C4205D21F2CAB
:102C600003D830272F550134F5E7F70615D577053A
:102C700005D4002C03D0944224D09C4222D00F9A39
:102C8000102A2BD00F9A102A30D00F9A022A35D052
:102C90001F2C02D830222A5501341F2C05D84A4651
:102CA000002A31D02D222A55013403960293019433
:102CB000009543466246FFF753FF05B0C0BCB946D6
:102CC000B046F0BD621E012C06D00F9F102F01D020
:102CD0001400D4E7023CD2E71400D0E7B206D1D406
:102CE0001F2CCFD878222A550134D1E7B206CCD593
:102CF0001F2CCAD858222A550134C9E71F2CC7D81F
:102D000060322A550134C3E7720703D52B222A55B6
:102D10000134CAE73207C8D520222A550134C4E756
:102D2000F0B5DE4657464E464546E0B593B081467F
:102D30008A46089209931CAB10CB1B789B461E9DBC
:102D4000219B9846002C03D1102342469A4390467B
:102D50008023DB0046461E4042461A4212D0002C19
:102D600022D000260EE03031CBB2771C0AAA935550
:102D70002900200001F002F8AC4216D31F2F14D80E
:102D80003E0004002900200000F0F8FFC9B2092924
:102D9000E9D943469B0605D541235B18DBB20A3BC4
:102DA000DBB2E2E76123F8E7270043460693209B66
:102DB00005931F9B049303955B46029301970AAB0F
:102DC0000093099B089A51464846FFF720FF13B02D
:102DD000F0BCBB46B246A946A046F0BDF0B5DE4603
:102DE00057464E464546E0B595B0089009910A927F
:102DF0000B931E9E1F9C20AB1B789B46229B9946E3
:102E0000239D269B9A463300234303D11033524619
:102E10009A4392468023DB0057461F4052461A428F
:102E200019D0330023432DD0002714E03032D3B221
:102E30007A1C90460CAAD3554A462B00300021003C
:102E400000F0DEFFA5421FD819D043461F2B1BD828
:102E5000474606000C004A462B003000210000F0D7
:102E6000CFFFD2B2092AE1D953469B0605D54123AB
:102E70009B18DBB20A3BDBB2DAE76123F8E7B14526
:102E8000E3D901E00023984653460693259B05931A
:102E9000249B04934B4603935B4602934346019362
:102EA0000CAB00930B9B0A9A09990898FFF7AFFEA9
:102EB00015B0F0BCBB46B246A946A046F0BD000026
:102EC000F0B5DE4657464E464546E0B591B08346DE
:102ED0008A460C9298461A9C08941B9D09952200DC
:102EE0002B002000290001F026FA002800D0E5E0A0
:102EF00001225242D74B2000290001F017FA002886
:102F000000D0DBE001225242D34B2000290001F027
:102F1000F7F9002800D0D1E000220023089E3000FD
:102F2000099D290001F0ECF9002800D0DDE0089AA5
:102F3000099B069207938023DB001E9A1A400D928C
:102F40001E9A1A4201D106231C9306980799040081
:102F50000D000A000600024300D1D1E0080D400533
:102F6000400DBE4CA44660440A03120BBC4B1343F5
:102F70001F0001F0F3F9BB4ABB4B01F07EF9BB4ADD
:102F8000BB4B01F053F904000D000022B94B300097
:102F9000390001F042F9B84AB84B01F06EF902006D
:102FA0000B002000290001F041F901F0EFF9814602
:102FB00001F0D4F904000D00B14AB24B01F05DF903
:102FC0000022B14B01F032F901F0E0F90600AF4AFE
:102FD000AF4B2000290001F050F904000D00300033
:102FE00001F0BCF9AB4AAC4B01F047F902000B0011
:102FF0002000290001F011F904000D0002000B006F
:1030000001F03BF90A900B91A44BF31800261F0521
:1030100022002B002000290001F008F90E900F91EA
:1030200022002B0000208021C90501F0F6F80400E1
:103030000D0000229A4B0A980B9901F000F900222A
:10304000984B01F0F3F802000B000A980B9901F07D
:10305000F6F80022944B01F0E9F802000B000A9800
:103060000B9901F0ECF802000B002000290001F0A0
:10307000DDF802000B000E980F9901F0E0F8002235
:10308000774B01F0D3F832003B0001F0F6F8060070
:103090000F0004000D00069A079B01F047F9002875
:1030A00030D001235B429C46E14400227D4B30003E
:1030B000390001F0C4F804000D0023E01E9B0493C6
:1030C0001D9B03931C9B0293089A099B00920193FA
:1030D00043460C9A5146584600F0FCF811B0F0BC3B
:1030E000BB46B246A946A046F0BD00230024069385
:1030F0000794069680231B069C46654407951AE7AD
:10310000002399464B466333C62B1ED804261E9BCC
:103110001B0526D52B0023430FD0644A644B069829
:10312000079901F0FBF8002879D00022614B06983E
:10313000079901F0E5F8002871D01C9B4B4506DD8E
:103140004A469B1A013B1C9303E00526DFE7002358
:103150001C938023DB001E9A1A431E920026002334
:1031600099461D9B9E4264D29F1B02231E9A1A40C1
:103170000A921E9A134202D0002E00D000274B461E
:10318000002B07D022002B000698079901F057F872
:1031900006900791002200230898099901F0B0F8E1
:1031A000002848D1444B1E9A1340049303971C9B5C
:1031B0000293069B079C0093019443460C9A514648
:1031C000584600F087F8002E00D187E71E9B9B062B
:1031D0003DD54525441C4346020051462800D847AA
:1031E0004A46D317D2185A4005230593013E049648
:1031F000002303930A3302934B46DB0F01930092A3
:103200004346220051465846FFF78AFD0A9B002B91
:1032100000D163E702005F460C9E1D9D54E01C9B9D
:10322000002B9ED00D9B002B9BD01C9B013B1C9325
:1032300097E7002799E7069C079D22002900802038
:103240000006844661440B0006920793AAE76525B1
:10325000C0E7C046FFFFEF7FFFFFEFFF01FCFFFF6E
:103260000000F03FFB799F501344D33FB3C8608BFD
:10327000288AC63F0000F83F61436F63A787D23FAB
:1032800071A379094F930A400000E03F1655B5BB82
:10329000B16B0240EF39FAFE422EE63FFF03000019
:1032A00000002C4000002440000018402D431CEB7F
:1032B000E2361A3F80842E41FFF7FFFF541C43463D
:1032C00051462020B8472200931BAB42F6D3100092
:1032D00004E7C046F0B5DE4657464E464546E0B5E3
:1032E00095B00690079193469946209F1E9A1F9B82
:1032F0001000190001F01FF8002831D101225242BC
:10330000BF4B1E981F9900F0FBFF002837D1012208
:103310005242BC4B1E981F9901F008F800283DD17D
:103320000022B94B1E981F9901F000F8002850D1D7
:103330000022B64B1E981F9900F0E2FF002848D1EA
:10334000002200231E981F9900F0DAFF002850D1B8
:1033500000239846229B5B0500D4B6E0002458E089
:10336000229B0393219B029303230193A84B009379
:103370004B465A4607990698FFF7F2FB0EE1229B4F
:103380000393219B029304230193A24B00934B468A
:103390005A4607990698FFF7E3FBFFE00423229AB9
:1033A0001A4022990B4210D09B4B002A0FD00422C6
:1033B0002299039121990291019200934B465A461A
:1033C00007990698FFF7CCFBE8E0944BEDE7032262
:1033D000EEE7229B0493219B039302971E9B1F9C65
:1033E000009301944B465A4607990698FFF768FDEB
:1033F000D4E01E9A1F9B0020002100F00EFF1E90BB
:103400001F9101239846A5E70CAB30221A55013FC6
:1034100001341F2C01D8092FF6D81E981F9900F0EF
:10342000B5FF050000F09AFF02000B001E981F99DF
:1034300000F0F3FE7A4BFA009B181A685B680A9258
:103440000B9300F01AFF0890099100F0C3FF0600EB
:1034500000F080FF02000B000898099900F0DDFEE3
:103460000890099100226F4B00F060FF00282ED0D9
:103470000136300000F06EFF02000B000A980B9935
:1034800000F044FF002801D001350026002F2CD188
:10349000280000F063FF02000B001E981F9900F047
:1034A000BCFE06000F0000225E4B00F029FF002842
:1034B00046D100225B4B3000390000F037FF002876
:1034C0003ED1EB073CD501353AE0062746E700221E
:1034D000544B0898099900F013FF0028D6D1002E0C
:1034E00001D0F307D2D50136D0E7AA461F2C11D858
:1034F000013F0A21300000F041FC651C30310CAB6B
:1035000019550A21300000F039FC092E0ED90600A9
:103510002C00EBE755461F2C0CD87B1E002F09D042
:103520000CAA302111551F000134F4E72B00554639
:103530001C00F0E71F2C03D80CAB2E221A550134C7
:103540001F2C10D80A21280000F0F0FB661C303137
:103550000CAB19550A21280000F0E8FB051E01D02C
:103560003400EDE734000323229A1340012B1CD0D2
:103570001F2C06D84346002B32D00CAB2D221A55F7
:103580000134229B0393219B029301940CAB009383
:103590004B465A4607990698FFF7E2FA15B0F0BC79
:1035A000BB46B246A946A046F0BD219B002B13D0D6
:1035B0004346002B02D10C3313420FD0219B013B19
:1035C0002193190003E00CAB30221A5501348C42D0
:1035D000CED21F2CF7D9CBE72199F8E72199F6E74E
:1035E000229B5B0704D50CAB2B221A550134C8E78C
:1035F000229B1B07C5D50CAB20221A550134C0E70E
:10360000FFFFEFFFFFFFEF7F65CDCD4165CDCDC162
:10361000DC970010E0970010D0970010D8970010AA
:10362000889900100000E03FF0B5DE4657464E4650
:103630004546E0B593B082468B46904611930029EB
:1036400000D100E300275446119B1878002800D1D0
:10365000FCE2252809D07D1C43463A005946A04784
:10366000119B013311932F00EEE7013311930025D5
:10367000119A11780B00203BD8B2102803D8830090
:10368000C248C3589F460B00303BDBB2092B2CD9F4
:103690002A292FD000230A93119B1A782E2A39D079
:1036A00000239946119A1378683BD9B2122976D82B
:1036B0008B00B749CB589F4601231D43013211921D
:1036C000D6E702231D4301321192D1E704231D43A3
:1036D00001321192CCE708231D4301321192C7E752
:1036E00010231D4301321192C2E711A8FFF726FAF9
:1036F0000A90D1E71C9B1A1D1C921B68002B04DB4F
:103700000A93119B01331193C6E7022215435B42D2
:103710000A93F6E78022D20015435A1C11925A7878
:103720001300303BDBB2092B04D92A2A07D000232F
:103730009946B7E711A8FFF701FA8146B2E71C9B4B
:103740001A1D1C921B68002B04DB9946119B013348
:103750001193A7E70023F8E780235B002B43511C5C
:10376000119152786C2A01D01D0018E0C0239B00F3
:103770001D430131119112E080232B43511C119103
:103780005278682A01D01D0009E0C0231D43013191
:10379000119104E080235B001D4301321192119BC3
:1037A0001878672816D8252826D30300253BDAB2D7
:1037B000422A21D89300774AD3589F4680239B0002
:1037C0001D4301321192EAE780235B001D43013261
:1037D0001192E4E778280FD869280DD30200693ADE
:1037E000D2B2012393406C4A13420FD11A0600D57E
:1037F00003E25B0500D594E17D1C43463A0059463F
:10380000A047119B013311932F001DE7782809D0A1
:10381000622838D06F2838D0582838D010239D43DC
:103820000A2600E01026582833D0692803D06428DF
:1038300001D00C2295436A0501D5012295436928E0
:103840002AD0642828D0AA0500D5A7E0EA0500D52B
:10385000C0E06A0600D4D2E01C9A111D1C911168C8
:10386000FF220A4005950A9B04934B460393029658
:1038700000230193009243463A0059462000FFF787
:103880004FFA070027E00226CDE70826CBE71026EF
:10389000C9E720221543C8E7AA0520D4EA0550D479
:1038A0006A0666D51C9A111D1C911168FF220A40F8
:1038B000D0171118414005950A9B04934B4603937A
:1038C0000296D20F0192009143463A0059462000D9
:1038D000FFF726FA0700119B01331193B4E61C9AF7
:1038E000073207218A43110008311C91116853687F
:1038F0009C46DB170C930D930C9A0D9B10004840CF
:103900000E90624653400F930E980F990C9A0D9BA0
:10391000801A99410E900F9108950A9B07934B4688
:1039200006930496002305936346DA0F02920090F3
:10393000019143463A0059462000FFF74FFA07002D
:10394000C9E71C9A111D1C911268D017111841402B
:1039500005950A9B04934B4603930296D20F01925E
:10396000009143463A0059462000FFF7D9F9070075
:10397000B1E72A0605D51C9A111D1C910023D25EC1
:1039800096E71C9A111D1C91126891E7E8970010A8
:103990002C98001078980010419000001C9A073273
:1039A00007218A43110008311C9108950A9B07934F
:1039B0004B460693049600230593029353681268BE
:1039C0000092019343463A0059462000FFF706FA59
:1039D000070080E71C9A111D1C9105950A9B049312
:1039E0004B460393029600230193136800934346CA
:1039F0003A0059462000FFF793F907006BE72A06C3
:103A000006D51C9A111D1C9112681204120C29E78C
:103A10001C9A111D1C91126824E746281AD01C9B81
:103A20000733072293431A0008321C9204950A9A1E
:103A300003924A4602921A685B68009201934346D9
:103A40003A0059462000FFF745FC0700119B01335F
:103A50001193F9E520231D43E1E7672801D04728AA
:103A600002D180231B011D43452801D0472801D1E5
:103A700020231D431C9B0733072293431A0008325F
:103A80001C9204950A9A03924A4602921A685B684D
:103A90000092019343463A0059462000FFF710FA7E
:103AA0000700119B01331193CEE502231A002A402F
:103AB00092462B421FD001251C9B1A1D1C927A1C7A
:103AC0009146187843463A005946A0475346002B82
:103AD00016D1119B013311934F46B5E5561C434651
:103AE00059462020B8472B0032005D1C9C42F5D877
:103AF0003C001700E0E701233A0027000A9CF4E7A6
:103B00004A46A1460A9C06E0571C434659462020D7
:103B1000C84735003A006E1CAC42F5D84C46914679
:103B2000D7E71C9B1A1D1C921E684B46002B00D128
:103B3000013B310001E0013113000A78002A02D074
:103B40005A1E002BF7D1891B10918023DB002A001D
:103B50001A4092461D4203D0494501D94B46109365
:103B600002231A002A400B922B4205D03A005746F6
:103B700023004C46994620E03A00109B5F46B3462E
:103B8000260006E0541C434639002020B0472B0095
:103B900022005D1C0A999942F4D834005E46BB4667
:103BA0001095574623004C46994606E01C00013606
:103BB000551C43465946C8472A003078002804D08F
:103BC000002FF4D0631E002CF0D117004C460B9B45
:103BD000002B03D1119B0133119335E50A9F109BF4
:103BE00006E0561C434659462020A0472B003200D1
:103BF0005D1C9F42F5D81700ECE721232B431C9A4C
:103C0000111D1C9112680593082304934B460393DE
:103C10001023029300230193009243463A00594631
:103C20002000FFF77DF80700119B013311930BE58E
:103C30007D1C43463A0059462520A047119B01337D
:103C400011932F0000E50B4B9A46FBE4A246474533
:103C500002D343465A1E00E03A004346594600202C
:103C6000D047380013B0F0BCBB46B246A946A046C8
:103C7000F0BDC0462D2B00100EB430B584B001004D
:103C800007AC08CC03940122054D00945242280051
:103C9000FFF7CAFC04B030BC08BC03B01847C046EC
:103CA000252B001000B585B0029003910121044836
:103CB000009313004A4202A9FFF7B6FC05B000BD0D
:103CC0002F2B001001480421014B1847100500203C
:103CD000F53C001010B5010018231B881422108831
:103CE000984710BD10B5010018231B8816221088B4
:103CF000984710BDF0B5C64600B507000E00002578
:103D00000123984600E00135B5420AD2AC003C19C7
:103D10002068FFF7DFFF20600028F4D100239846D9
:103D2000F1E7404680BCB846F0BD0000124A936FF0
:103D30009B0815D29066D166002905D0FFE7FFE702
:103D4000FFE7516F106F704704B580210906C21755
:103D50005140002800D0C84304F00EFF002104BDEC
:103D6000F0B5146E556E576F166FFFF7E3FF1466CC
:103D7000556657671667F0BD000000D0114A936F73
:103D80009B0813D210665166002905D0FFE7FFE7B4
:103D9000FFE7516F106F704704B5002801D0002075
:103DA000C04304F0E9FE002104BDC046F0B5146E26
:103DB000556E576F166FFFF7E5FF14665566576728
:103DC0001667F0BD000000D094464E4A926F9208EC
:103DD000624601D230E0C046F0B54A4EB56F6D087C
:103DE000FCD3346E756E776F366F00F025F894460D
:103DF000444A14665566576716676246F0BDC0466A
:103E00009446404A926F9208624601D258E0C046FA
:103E1000F0B53C4EB56F6D08FCD3346E756E776FA0
:103E2000366F00F04DF89446364A1466556657676B
:103E300016676246F0BDC046002B24DB11D0002976
:103E40003EDA00B5C943404200D1013100F038F8F4
:103E5000C943404200D10131DB43524200D101331A
:103E600000BD002AEBD1002801D1002905D0002097
:103E7000C90FC90701D1C043410800B504F074FE61
:103E80000022002300BD00B500290ADBDB435242BB
:103E900000D1013300F014F8C943404200D1013190
:103EA00000BDC943404200D10131DB43524200D141
:103EB000013300F005F8DB43524200D1013300BD6D
:103EC000002923D1002B18D1002A0CD0BC460D4F5D
:103ED00038667A6600210023FFE7FFE7FFE77A6F85
:103EE000386F67467047002801D00748010000B5C9
:103EF00004F03AFE0022002300BD02000B00002067
:103F000000217047000000D0FFFFFFFF002B00D012
:103F1000BFE0130C28D1002AE7D080B4114F3966D6
:103F20007A66FFE7FFE730B4040C7B6F396F1B0440
:103F300023433B667A66FFE7FFE7FFE7C04684B2AC
:103F40007B6F3D6F1B0423433B667A66FFE7FFE709
:103F5000C04600232C042D0C7A6F386F001969417C
:103F6000B0BC7047000000D0F0B594460025140E98
:103F700001D112020835140F01D112010435940F3A
:103F800001D192000235D40F01D152000135D40B7A
:103F90000134254F7C66254C3C660E0C93B2FFE73E
:103FA000FFE7FFE73C6F6643360C7703BE4673437B
:103FB000DF0B5B04C01AB941130C7343DB18C91A39
:103FC000CE086643360CB64493B273431F0F1B01F1
:103FD000C01AB941130C73431F0B1B05C01AB9411A
:103FE000860D8F023E436643360C092D24DB520AB0
:103FF0007243801A7703460A6643360C16235B1B0E
:10400000DE40DF40BF1964466643821B70460435BC
:1040100006330100D940A840C01900D30131A242A3
:1040200006D20023F0BD0000000000D0FFFFFFFF1C
:10403000121B0130F3D3F1E709277F1BFE406446D2
:10404000A2B27243801A00D20139220C7243130CBF
:104050001204821A99410B0070460435133701008F
:10406000F940A840801900D30131002B02D1A242AF
:104070000AD2F0BD013000D30131121BFAD2013B4C
:10408000F8D1A24200D2F0BD013000D30131121BA1
:10409000F7E7F0B51C0C00D080E00CB400251C0A3A
:1040A00004D11B02160E3343120208351C0B04D137
:1040B0001B01160F3343120104359C0B04D19B00E6
:1040C000960F334392000235DC0B02D192185B410C
:1040D00001351C00971864410134464F7C66464CFC
:1040E0003C660E0CFFE7FFE7FFE7C0463C6F664308
:1040F000360C7703BE4697B27743C01B00D2013916
:10410000C01B00D201399FB27743C91BC91B170CD2
:1041100077437E04FF0B801BB941CE086643360C03
:104120000C2D33DBB644120B1F053A431B0B97B221
:104130007743C01B00D201399FB27743C91B170CCC
:1041400077433E043F0C801BB941860D8F023E43EE
:10415000664329277F1BFE400C3D7746AF40BF19C1
:1041600030BCA2B2ABB272437343801A9941220CA5
:104170007243130C1204801A994102000B0001379C
:10418000001BA941F9D2781E0021F0BD0C277F1B2E
:10419000FE4077467F0BAF40FF19E0E700245D1C2F
:1041A00007D0144F7D663966FFE7FFE7FFE7FFE7BB
:1041B0003C6F95B29EB265436643401BB141150CFE
:1041C0001E0C6543664336042F0C3E432D04401BF2
:1041D000B141994204D202000B0020000021F0BD41
:1041E00001D19042F7D3801A994101349942F2D318
:1041F000F6E70000000000D0FFFFFFFF44464D46F9
:1042000056465F46F0B47047F0BCA046A946B24699
:10421000BB46704748404140484018B41B4B5B6860
:10422000FC46019308BD04DFAB48001018B4174BDF
:104230001B68FC46019308BD00DFB548001094469A
:10424000134A926F920809D2624618B40F4BDB688A
:10425000FC46019308BD0CDF6D4B00100C4AF0B515
:10426000146E556E576F166F6246FFF7EEFF084AE1
:104270001466556657671667F0BD18B4034B9B6804
:10428000FC46019308BD08DF114A0010D810002039
:10429000000000D0FFB550404240504059404B40D4
:1042A000594000E0FFB5154F4C00640D03D0BC42EF
:1042B00004D10C0314D80020090D09055C00640D1D
:1042C00003D0BC4204D11C030AD800221B0D1B05DD
:1042D00001264B4009D44B4003D58B4200D182428A
:1042E000FFBD9942FCD19042FFBD0B43DB18034355
:1042F0001343F5D0C9434918FFBD0000FF07000074
:1043000000B5FFF7CFFF804100BDC04600B5FFF705
:10431000C9FF01D9002000BD012000BD00B5FFF795
:10432000B9FF01D9002000BD012000BD00B5FFF795
:10433000B1FF804100BD012040054A00121804D899
:104340005A00121801D80020704701207047002041
:10435000704700000021002805D17047C117484070
:10436000401AFAD0C90713B5064B1B6898470CBC16
:10437000441CA2401005120B0349091B09051943EF
:10438000114310BDD81100201F04000010B54C00CF
:10439000620D8023D218DB00D21A5B057E2A10DD65
:1043A0009E3A13DACC170903490819435242D14007
:1043B000640001341532202A05DAD04008436043F6
:1043C00010BD002010BD0846604310BDC80FC018C6
:1043D000013810BD18B4044B5B6AFC46019308BD5C
:1043E00024DF494F00100000D810002018B4044BFF
:1043F0001B6EFC46019308BD60DF575000100000A3
:10440000D810002018B4044BDB6FFC46019308BDA4
:104410007CDFE14F00100000D810002018B4044BDE
:104420009B69FC46019308BD18DF394D0010000060
:10443000D8100020024A034B00B500F011FA00BD6D
:10444000182D4454FB2119408A0002D3920D092AE9
:1044500008DA18B4064B1B6CFC46019308BD40DF1C
:104460008B51001000B5FFF7E5FF04BC9646F0E75E
:10447000D810002018B4044B9B6DFC46019308BD76
:1044800058DF795200100000D810002070B51323B7
:104490001C78012C14D0012C14DC022C02DC1F4BE4
:1044A0001F4A93641F48FFF715FC1F4B186070BD2F
:1044B0001A491B4A9800815001331F2BF8D9EAE7AB
:1044C0000023FAE71948FFF70DFC05001848FFF72D
:1044D00009FC023803789B007F2B19DD10488022ED
:1044E000290001F049F9022CD7D1124B1A88B523C3
:1044F0001B029A4209D1104B1A88104B9A4204D1E0
:104500000F4B1A880F4B9A42C7D00020FEF7C4F811
:104510000D4B0E4A0E483221FEF724F87148001068
:10452000D81000204C330000D81100205344000064
:104530005346000054380000D838000049460000B7
:104540009C38000059460000D8990010849A001049
:10455000389A0010F0B5DE4657464E464546E0B55F
:1045600085B004000D00009201930E9B9A46002B2B
:1045700044DD019B191101204042FFF7FFFB03902E
:1045800000239B4628E00C239946AB11039A534322
:104590001D224946521A134101335B1098464B467F
:1045A000203B21D422009A40170023004A46934022
:1045B0001E004346D917009A019B404600F066FF53
:1045C00034003D00241A8D415B464A4693404344E3
:1045D0009B4653469B1A9A465346002B11DD534681
:1045E0000C2BD0DCD146D0E720235B1A2200DA4026
:1045F00013002A008A4017001F43D6E700230393C5
:10460000BEE7009A019BAB4209DC01D1A24206D869
:10461000009A019BA41A9D4101239C46E344009A01
:10462000019BAB4209DC01D1A24206D8009A019B52
:10463000A41A9D4101239C46E344002D0FDB002D6D
:1046400016DB0F9B002B01D05A461A602000290070
:1046500005B0F0BCBB46B246A946A046F0BD009AE4
:10466000019BA4185D4101235B429C46E344E6E7BD
:10467000009A019BA4185D4101235B429C46E344E0
:10468000DFE70000F8B504000D0002000B00002079
:104690001249FFF7C2FD06000F0000220F4B200059
:1046A0002900FFF7C3FD02000B0030003900FFF7BF
:1046B000E4FD06000A000B0D5B0501D000290ADBB2
:1046C00030001100FFF7AAFE02000B0020002900B5
:1046D000FFF7D0FEF8BD00200149FBE70000F03FE6
:1046E0000000F07FF0B5C64600B58AB007900F0015
:1046F00011001A00FE0F3B0D5B055B0D3D032D0BFA
:1047000080246403049025430595D50FA846150D14
:104710006D056D0D1203120B029114430394109A50
:10472000002A02D0002210990A604A4A934200D11E
:104730007EE0002D00D17EE0002B00D183E0954289
:1047400000D183E06A1E9A4200DD81E045D0002E50
:1047500006D0049E059F00227142BA410491059241
:1047600009AA01925B1B0093029A039B0498059986
:10477000FFF7F0FE06000F0003000C009B197C41C0
:104780002200029803998C420BDC01D1834208D8A5
:1047900002998B420CD1039B9A4209D1099BDB07FA
:1047A00006D5029B039CF61AA741099B0133099386
:1047B0004346002B02D0099B5B420993109B002BC0
:1047C00002D0099B109A1360234A521B3000390013
:1047D000FFF70CFE06000F002FE0039B059999429E
:1047E0000FDD002E17D1029C039D24196D41049802
:1047F0000599001BA94106000F000123099315002C
:10480000D6E7029B039C0598A04202D104999942E5
:10481000E7D8079E11E0029E039FB6197F41049BD3
:10482000059CF61AA74101235B4209931500BFE7D7
:1048300000260A4F01E00026084F300039000AB078
:1048400080BCB846F0BD00260027F6E7079EF4E7D7
:10485000079EF2E7FF070000330400000000F07F2E
:1048600010B582B000240094FFF73CFF02B010BDE9
:1048700007B56046002800D100BE01880A0A023050
:10488000DF2AFAD1C9B2820804D302884088000422
:10489000104300E00068024A5050039007BD00003A
:1048A000D81000200FB403BC0CBCF0B50124E40701
:1048B000634000E0F0B50C0DCF0F661E3605891B76
:1048C000640503D3C943404200D30131640D03D0D2
:1048D000661CF60A07D0E41B00207F00791C8907BC
:1048E0008912803C24031D0DDF0F6E1E36059B1BB5
:1048F0006D0503D3DB43524200D301336D0D03D06A
:104900006E1CF60A07D0ED1B00227F007B1C9B0764
:104910009B12803D2D032F1B661B58D4A446202ECE
:1049200046DA20371400BC401D00BD40F240334140
:104930002A4380185941CB0F05D0C943C0430022F8
:1049400064425041514162464D0D28D10D0D07D1B1
:1049500000281FD0241940414941013A0D0DF9D0DA
:10496000640006D3013000D30131002C01D140088E
:104970004000013A0BD4941CE40A04D112051144FE
:10498000DB071944F0BDD907204B194300E0D907D4
:104990000020F0BD0029DDD1002CDBD1F0BD0132BB
:1049A000C6074008CD0728434908002EE1D0D9E7C3
:1049B0003C2E29DA203E40371400BC4000D00124B0
:1049C000F24014431A00BB401C43D317ACE7AC467B
:1049D000202F08DA20360400B4400D00B540F8401E
:1049E00039412843A5E73C2F0CDA203F403604002C
:1049F000B44000D00124F84004430800B1400C4307
:104A0000C117EAE710001900002494E70000F07FC6
:104A1000F0B50C0D661E3605891BE60A6405640DAB
:104A200002D0651CED0A04D0002001210905803C5C
:104A30002403A4461C0D671E3F05DB1BE70A640523
:104A4000640D02D0651CED0A04D0002201231B0571
:104A5000803C24037740644497B484B296B2744394
:104A6000070C7E43150C6F4380B26843361802D39F
:104A7000012000043F183004350C00197D418446A4
:104A800088B29AB250430C0C62431F0C7C438EB226
:104A90007E43921902D301263604A4191604170C7A
:104AA0003618674101BC81B29AB25143040C62438B
:104AB0001B0C5C4380B25843121802D3012000043F
:104AC00024181004130C401863412D185E41002077
:104AD000474106BC88B293B258430C0C6343120C96
:104AE000544389B251435B1802D30121090464186D
:104AF00019041A0C091862416D18564100204741EB
:104B000018BCF902720D1143F0026A0D1043ED0258
:104B10000A0D03D16D1940414941013B124E9B1BC7
:104B20007600B3420ED26D0007D3013000267141EA
:104B30006646354301D1400840001B05C918E4070B
:104B40002144F0BD0BDA013306D1013004D101312B
:104B50004F0D01D04908F2E7E1070020F0BD013612
:104B600031050020EBE70000FF030000F0B51C0D4D
:104B7000671E3F05DB1BE70A6405640D02D0661C57
:104B8000F60A04D0002201231B05803C2403D02513
:104B90002D060026F6432E661E096E66CE0FF61908
:104BA000B44649004F0D02D07E1CF60A03D0002007
:104BB0000021403F3F033E1BB600B444013F7F0548
:104BC000C91B49082E6F013676089C02950D2543B6
:104BD0007543ED137543AD1301356D10F603761B68
:104BE0000CB4CC02450D2C43A2B2B3B25A43270CED
:104BF0007B43350C6F43A4B26C431B1902D30124D1
:104C000024043F191C041D0CA4187D4124196D4176
:104C1000009A91B2ACB26143170C7C432B0C5F43FA
:104C200092B25A43A41802D301221204BF182204DC
:104C3000230C52187B41019C6C431B19520ED90165
:104C40000A434401A01A81B2B2B2514303145A4339
:104C5000360C734387B27743D617D21900277E41AB
:104C600036049B191704160C7F185E417316ED1855
:104C7000F301002680337541A90F06D16400690A4B
:104C8000E8055B0A184309D22FE0042294448033DC
:104C90007541A90AA8059B0A184326D340414941FA
:104CA0002404009A019B0D005543641B4343E41AFE
:104CB00095B286B27543170C7E43030C5F4392B2E4
:104CC0005A43B61802D301221204BF183204330C1F
:104CD00052197B4152429C41002C02D400220130E7
:104CE00051414008CA071043490802B06246D7073D
:104CF0009210084BD218084B9A4203D21205891819
:104D0000C919F0BD0020002A01DC3900F0BD0133D3
:104D10001905F5E7FD030000FE07000007DA002192
:104D200007E0C90FC907520D03D0C91201E04C4971
:104D3000090500207047C0464A00F2D2520D013AE0
:104D4000484B9A42EAD2F0B51405091B520801D328
:104D5000001849419B08D2181205944640A44A0CF9
:104D6000A25C0B09534353431B1353435B131202BF
:104D7000D21A13005B435B0B4C086343DB135343B2
:104D8000DB1501335B10D21A130CD21A13005B43EC
:104D90008902840D21438DB29EB275430F0C7E4370
:104DA0001B0C5F438CB25C43361902D301242404EC
:104DB0003F193404330C64197B419D01A40E2C432C
:104DC0002034A5B25543241454432D0C6419A41166
:104DD000D203121B95B28EB27543170C7E430C0C96
:104DE000674393B26343F61802D301231B04FF18F1
:104DF0003304340C5B197C41DB186441DB1800235D
:104E000063419EB276439DB21F0C7D437F436C0489
:104E1000ED0BA4197D4106028F08361BAF417D07BB
:104E2000F6086E41B4B295B26C4337147D43120C50
:104E30005743B6B25643EA17AD1900267241120421
:104E4000BF182E042A0C36197A410832521117D293
:104E50009D0A9C05D117101969416144F0BD0000FD
:104E6000FF070000FE070000F8EBDFD6CDC5BEB897
:104E7000B2ADA8A4A09C9995928F8D8A88858381D4
:104E800052415D0ADC05D11714194D412B006343D3
:104E9000A6B27643A2B2270C7A437F435104D20BC9
:104EA00089197A41D218D21880054942904102D41A
:104EB000002301345D4160086908ED07284361441F
:104EC000F0BDC046624618CA94465A46002A20DB06
:104ED00004E0624618CA944600291ADAC0186141F3
:104EE0005B463B415C46B4405246FA40224344464E
:104EF0004D4662416B41904699462B46B3403D4139
:104F0000FC401C4352465B46A241AB4192469B4645
:104F10007047C01AA1414B463B414C46B440424603
:104F2000FA40224354465D4662416B4192469B469D
:104F30002B46B3403D41FC401C4342464B46A241F8
:104F4000AB41904699467047002200B5203200F0F0
:104F500010F8080000BD002200B500F00CF8CA17D8
:104F60009A4200D100BDD8430121C907414000BD8C
:104F700000220B150AD410B5944600F0A7F81414BB
:104F8000013400DA0021CB17144C20470020002107
:104F900070476244343A0CD40C2A07DA040091407A
:104FA000904052422032D440214310BDD843D943CF
:104FB00010BD203207D40C46944052422032114199
:104FC000D040204310BD0800C917203203D45242FC
:104FD0002032104110BD1800190010BD934F001071
:104FE0004A00520D144BD21A13DDFF2A1EDAD205E5
:104FF000CB0FDB071A43C300400F0903490A0843DC
:1050000010435B0001D301D0013070474308FBD24D
:10501000704702D0C80FC00770470A03121301324D
:10502000F8D1420F072AF5D1012200E0FF22C80F74
:1050300000028018C00570478003000000210A00AC
:10504000002104E000210A00C11704E0002200232F
:1050500006E0C0460022CB1758405940C01A99417B
:1050600030B5184CA21A002903D1010010D000203D
:10507000203A4C1512D104D2013A001849414C0D86
:10508000FAD3114CA24204D212058918DB07C918C1
:1050900030BDD243520D00200021F5E703D4013A80
:1050A00000184941FBD50B324405C00A4D05284381
:1050B000C90A640003D0002460416141E1E7E0D304
:1050C0004408F8E732040000FE0700000A0DCC0F88
:1050D000531E1B05C91A520503D3C943404200D3CE
:1050E0000131520D03D0531CDB0A07D0121B0020E4
:1050F0006400611C89078912803A1203014BD21A9D
:1051000070470000FF030000023225D40C2A1CDA8D
:105110001125AD1A0B002B41083207350600EE4071
:10512000904091403143F0CC63431A1500235A411B
:10513000554356435743BF02F4127605761967412B
:10514000ED177F19801BB94170470C220020C91749
:10515000490001310905DBE70902030E194300028A
:105160005342203208D40C0019419440D8402043C7
:1051700000225041514170470800C917203B20329E
:10518000F1D50020002100227047F0B5FFF736F876
:1051900000F006F800F046F8FFF736F8F0BD000022
:1051A00000B5FFF793FF30A4FFF7AEFF00242C4DAE
:1051B0002C4ED20702D3F6436D426641520004D210
:1051C000A246A346A846B14603E0A046A146AA4689
:1051D000B3466EA4A44601271F26FFF77AFE0137C7
:1051E000013E212FF9D100BD594684B28DB26C43E6
:1051F000061475430B145E4382B25A43AD18EA1786
:1052000000D7D2431204B6182A042B0C121973418A
:10521000404649469D009B17920F2A439041994171
:105220003E2218E7494684B28DB26C43061475439A
:105230000B145E4382B25A43AD18EA1700D7D2432B
:105240001204B6182A042B0C121973415046594601
:105250009D009B17920F2A43504159413E22FAE686
:10526000BB4DF09DC556F6367D5100001A61140005
:1052700085880A00FB211900F0B5FEF7BFFF404DFD
:105280000C002C4001D0AC4202D1090D09050020D0
:105290001C002C4001D0AC4202D11B0D1B0500228A
:1052A0000026ED02002B04D502266B40694000D495
:1052B00076424F1904D599420CDD0136694003E06E
:1052C000BB4207DA013E6B40070010003A000F00B6
:1052D00019003B0040B4002A0FD1002B0AD05C001B
:1052E0006415013409D14C006415013402D101392F
:1052F000013B02E0002000212EE0FFF737FC3E22B8
:10530000FFF72AFE82468B460020002180460122BC
:10531000920791461DA4A44601271F26FFF7D2FD40
:105320000137013E212FF9D14A4653460C3A012458
:105330006407002752081B0005D4934100197941E6
:105340006408F7D104E05341001BB9416408F1D16E
:10535000CE0749104008304340BC002E0AD0094C0B
:10536000094D01D5E443ED43F60701D10019694128
:10537000001969413D22FFF76EFEFEF745FFF0BDC3
:105380000000F07F8D305A88A8F64332694FBB6128
:105390000567AC1DB16E4096FCBAAD0F72DB0BAB6E
:1053A000A66EF50739BD9FE576ABFE034B6297BA53
:1053B0005BD5FF01D694DBDDAAFAFF005DEAEE566D
:1053C00055FF7F006E77B7AAEAFF3F00BCBB55557B
:1053D000FDFF1F00DEADAAAAFFFF0F006F5555F5B8
:1053E000FFFF0700ABAAAAFEFFFF03005555D5FF3C
:1053F000FFFF0100ABAAFAFFFFFF00005555FFFFBA
:10540000FF7F0000ABEAFFFFFF3F000055FDFFFFFD
:10541000FF1F0000ABFFFFFFFF0F0000F5FFFFFFC6
:10542000FF070000FFFFFFFFFF0300000000000078
:105430000002000000000000000100000000000069
:10544000800000000000000040000000000000009C
:10545000200000000000000010000000000000001C
:105460000800000000000000040000000000000030
:1054700002000000000000000100000000000080A9
:1054800000000000000000400000000051434343C2
:10549000C9188C46110C83B24B4310B4040C614301
:1054A00092B280B2504362431C041B0C001910BC22
:1054B00059411304120CC018514161447047000057
:1054C00048404140484000239C46114B5B681847C8
:1054D00000239C460E4B1B6818470E4A936F9B088F
:1054E00004D200239C460A4BDB681847F0B5146EC3
:1054F000556E576F166FFFF7F4FF064A1466556630
:1055000057671667F0BD00239C46014B9B68184700
:10551000DC110020000000D0C10FC90700D54042B7
:10552000002817D0F44603B40B4B1B68984706BC01
:1055300081409E384042803107D20B0607D0490097
:10554000490AC0051043084360470130F8E7490A9B
:105550008902F5E770470000D811002041000A0ECB
:1055600080231B067E2A0BDD9E3A0BDAC117400210
:10557000400818435242D040490001314843704727
:1055800000207047C00FC01801387047C0420DD3CB
:1055900000B540004008002100F012F8002801D4B6
:1055A000404200BD8020000600BD0000034BDB69C7
:1055B000FC4618471CDF155700100000DC110020C6
:1055C00000239C46014B5B6A18470000DC11002059
:1055D000034BDB6FFC4618477CDF2D5700100000A3
:1055E000DC11002070B513231E782A48FEF77AFBE1
:1055F0000500012E11D0012E09DDAB1E1B789B008A
:105600007F2B40DD24488022290000F0B5F8234894
:10561000FEF760FB224B186070BD1F485422290022
:1056200000F0AAF81F4B1A881F4B9A421CD1A723DF
:105630009B011A881D4B9A4216D11D4B1A881D4B8F
:105640009A4211D11C4B1A8894239B019A420BD188
:105650001A4B1A881A4B9A4206D11A4B1A681A4BDF
:105660009A4201D1152307E01848FDF715F8184CA8
:10567000094A99008C5001331F2BF8D9144B064A64
:105680001362D361B7E7134B134A14484221FCF766
:1056900069FFC04653460000DC1100204C33000077
:1056A000D8110020EE290000C40F0000C20D000038
:1056B000962B0000C0B50000182B0000CC2A00007B
:1056C00010B50000FC2C000051ED876460950010BF
:1056D000E1560010989A0010149B0010CC9A00100C
:1056E00007B56046002800D100BE01880A0A0230D2
:1056F000DF2AFAD1C9B2820804D3028840880004A4
:10570000104300E00068024A5050039007BD0000BB
:10571000DC1100200021C2158032803201D0024A03
:105720001047002070470000CD2A0000C30FDB07A0
:1057300041000A0E07D0FF2A08D00909054A891836
:105740001943400770471900002070470249C918E3
:10575000FAE70000000000380000F07F0148042153
:10576000014B184720050020F53C0010014B1B6839
:105770001847000020050020014B5B681847000017
:105780002005002010B50300080011001B68984791
:1057900010BD0000F8B507000D001600437C002B7B
:1057A00002D0002400200CE0036811002800984774
:1057B0002DE03B7C10E03B68154802219847601CB7
:1057C0000134B44214DA002CF3DD2B19013B1B78B1
:1057D0000D3B5A425341DBB22A5D0A2AF0D1002B1D
:1057E000EED1A042E7DA3B68211A28189847E2E791
:1057F000B04203DA3B68311A28189847002E06DDBC
:10580000AD19013D2B780D3B5A4253413B74F8BD15
:10581000889B001070B505000368002B16D00C4B58
:105820001C6805E0290004C92000FFF7B3FFE46805
:10583000002C09D02368002BF9D0064B1B68002BE5
:10584000F0D0A342F3D1EDE700232B6070BDC0463A
:10585000980C00209C0C002070B505000C000B6813
:10586000802B05D023685A1C2260E418257170BD76
:105870000800FFF7CFFFF5E710B582B0D0231B0675
:1058800000241C57074801A903F07EF9002806D11F
:10589000019B9C4203D0034803F08EF9012002B023
:1058A00010BDC0467805002010B5024803F054F939
:1058B00010BDC04678050020F0B5CE46474680B5FD
:1058C00083B006000D0090461C00FFF7D5FF81460F
:1058D0006B1C05D0002C08D0194F1A4B1C6807E030
:1058E000300003F0F9F80500F4E7174FF5E7E46836
:1058F000002C17D02368002BF9D0144B1B68002B09
:1059000001D0A342F3D12A0031002000B84743461A
:10591000002BECD06B46D91D0A230B70012220000E
:10592000B847E4E74B46002B07D16B1E9D41E8B218
:1059300003B0C0BCB946B046F0BDFFF7B5FFF4E711
:1059400085570010980C0020955700109C0C0020E3
:10595000094A01E00C331A001368002B08D0834277
:10596000F8D1002907D1C36813600023C36002E0A7
:10597000002900D010607047980C002010B5064B2D
:105980001C6801E09847E468002C03D06368002B92
:10599000F8D1F8E710BDC046980C002070B505009E
:1059A00003F09AF804000023012201002800FFF709
:1059B00083FFFFF7E3FF200070BD000070B5A2B0C9
:1059C00004000E00FFF758FF05008422002101A803
:1059D000FFF7CCFE09483300220001A9FEF762F967
:1059E000040001A8FFF716FFFFF7C8FF002D02D142
:1059F000200022B070BDFFF757FFF9E7595800109B
:105A00000FB400B583B004A901C90191FFF7D6FF17
:105A100003B008BC04B0184710B500F053F910BD2E
:105A200070470000014B00221A70704713130020CA
:105A30004B79FF2B0CD18B79002B0BD1CB79012B20
:105A40000AD1082A0AD98A78054B1A70092000E081
:105A5000002070470020FCE70020FAE70020F8E76C
:105A6000131300200120704770B504000D00034897
:105A7000FEF730F903002900200098475542000046
:105A800010B5002926D1117953791B020B43124915
:105A900009788B4201D0002010BD5378012B03D030
:105AA000022B10D00020F7E79178D3781B0219431E
:105AB000DB0503D54B0A0120984000E000207F233E
:105AC0001940FFF7D1FF642200210020FCF7F2FF0C
:105AD0000120E1E70120DFE7131300200123037019
